:100000000C942A000C943F000C943F000C943F0089
:100010000C943F000C943F000C943F000C943F0064
:100020000C943F000C943F000C943F000C943F0054
:100030000C943F000C943F000C943F000C943F0044
:100040000C943F000C943F000C943F000C943F0034
:100050000C943F0011241FBECFE5D8E0DEBFCDBF1A
:1000600010E0A0E6B0E0E0E1F7E002C005900D92FC
:10007000AA38B107D9F70E94D6020C9486030C94D3
:100080000000672B09F09FC0009711F4D8980895DD
:100090008130910511F4D99808958230910511F4B9
:1000A000DA9808958330910511F4DB98089584302F
:1000B000910511F4DC9808958530910511F4DD98CF
:1000C00008958630910511F4DE98089587309105E2
:1000D00011F4DF9808958A30910511F4C0980895BD
:1000E0008B30910511F4C19808958C30910511F46D
:1000F000C29808958D30910511F4C39808958E30FB
:10010000910511F4C49808958F30910511F4C598A4
:1001100008958031910511F4C698089581319105B3
:1001200011F4C79808958431910511F4A8980895A1
:100130008531910511F4A99808958631910511F43E
:10014000AA9808958731910511F4AB9808958831E4
:10015000910511F4AC9808958931910511F4AD9889
:1001600008958A31910511F4AE9808958B31910567
:1001700011F4AF9808958E31910511F49098089577
:100180008F31910511F4919808958032910511F401
:10019000929808958132910511F4939808958232CE
:1001A000910511F4949808958332910511F495986E
:1001B00008958432910511F496980895859709F071
:1001C0009FC097980895009711F4D89A08958130A8
:1001D000910511F4D99A08958230910511F4DA9AB3
:1001E00008958330910511F4DB9A089584309105C8
:1001F00011F4DC9A08958530910511F4DD9A089583
:100200008630910511F4DE9A08958730910511F436
:10021000DF9A08958A30910511F4C09A08958B30C1
:10022000910511F4C19A08958C30910511F4C29A88
:1002300008958D30910511F4C39A08958E3091057B
:1002400011F4C49A08958F30910511F4C59A089558
:100250008031910511F4C69A08958131910511F408
:10026000C79A08958431910511F4A89A08958531AB
:10027000910511F4A99A08958631910511F4AA9A6D
:1002800008958731910511F4AB9A0895883191054D
:1002900011F4AC9A08958931910511F4AD9A08953D
:1002A0008A31910511F4AE9A08958B31910511F4BC
:1002B000AF9A08958E31910511F4909A08958F3177
:1002C000910511F4919A08958032910511F4929A52
:1002D00008958132910511F4939A0895823291051F
:1002E00011F4949A08958332910511F4959A089522
:1002F0008432910511F4969A0895859709F4979A96
:100300000895CF93C82F80FF07C061E070E08EE1B1
:1003100090E00E94410006C060E070E08EE190E055
:100320000E944100C1FF07C061E070E08FE190E0F2
:100330000E94410006C060E070E08FE190E00E9402
:100340004100C2FF07C061E070E080E290E00E94DF
:10035000410006C060E070E080E290E00E94410051
:10036000C3FF07C061E070E081E290E00E944100BD
:1003700006C060E070E081E290E00E944100C4FFAE
:1003800007C061E070E082E290E00E94410006C098
:1003900060E070E082E290E00E944100C5FF07C08B
:1003A00061E070E083E290E00E94410006C060E0FE
:1003B00070E083E290E00E944100C6FF07C061E068
:1003C00070E084E290E00E94410006C060E070E0CE
:1003D00084E290E00E944100CC233CF461E070E0B4
:1003E00085E290E00E94410006C060E070E085E296
:1003F00090E00E944100CF910895CF93C82F60E014
:1004000070E08AE190E00E9441008C2F0E948101FF
:1004100061E070E08BE190E00E9441008FE99FE095
:100420000197F1F700C0000060E070E08BE190E020
:100430000E9441008FE99FE00197F1F700C00000A2
:10044000CF91089581E00E94FD010895813029F443
:1004500080E8860F0E94FD010895823021F480EC2F
:10046000860F0E94FD01089560E070E08AE190E04F
:100470000E94410060E070E08BE190E00E9441004A
:100480002FEF89EF90E0215080409040E1F700C0CD
:10049000000080E30E94FD018FE19EE40197F1F7E7
:1004A00000C0000080E30E94FD018FE99FE00197FA
:1004B000F1F700C0000080E30E94FD018FE39CE99A
:1004C0000197F1F700C0000088E30E94FD018CE075
:1004D0000E94FD0181E00E94FD0186E00E94FD0175
:1004E0000895CF93C82F61E070E08AE190E00E9408
:1004F00041008C2F0E94810161E070E08BE190E06F
:100500000E9441008FE99FE00197F1F700C00000D1
:1005100060E070E08BE190E00E9441008FE99FE095
:100520000197F1F700C00000CF910895CF93DF93BA
:10053000EC018881882331F021960E947102899113
:100540008111FBCFDF91CF9108950F931F93CF932C
:10055000DF93EC01162F042F2B56304011F40E942C
:100560002202602F812F0E942602CE010E94960255
:10057000DF91CF911F910F9108951ABA87E886B93C
:1005800080E487B9089597B18F70982B97B9369A00
:10059000349BFECF85E38A95F1F7000024B185B145
:1005A00090E0982F8827820F911D08950F931F9335
:1005B000CF93DF93CDB7DEB72F970FB6F894DEBF9A
:1005C0000FBECDBF8FEF81BB84BB1ABA0E94BD02A4
:1005D0000E94340222E830E040E050E061E070E048
:1005E00081E790E00E94A50222E830E040E050E080
:1005F00062E070E083E890E00E94A5022FEF8BE7B5
:1006000092E9215080409040E1F700C0000000E0F6
:1006100010E08AE0E0E6F0E0DE01119601900D9234
:100620008A95E1F71B8680E00E94C3024AE0BE0182
:10063000645F7F4F0E945103BE01645F7F4FCE0114
:1006400001960E9446032BE630E040E050E061E076
:1006500070E0CE0101960E94A5022FEF87E893E19A
:10066000215080409040E1F700C000000F5F1F4F15
:1006700082F680E090E02F960FB6F894DEBF0FBEB2
:10068000CDBFDF91CF911F910F910895FB01DC0148
:100690000D900020E9F7119701900D920020E1F7ED
:1006A0000895BB274A3031F4992322F4BDE2909596
:1006B00081959F4F0C945D03BB27FB015527AA270B
:1006C000880F991FAA1FA41710F0A41B83955051DF
:1006D000B9F7A05DAA3308F0A95DA193009779F757
:1006E000B111B1931192CB010C947603DC01FC01A2
:1006F000672F71917723E1F7329704C07C916D9356
:1007000070836291AE17BF07C8F30895F894FFCFC6
:10071000416E616C6F67202D200000636C65617213
:10072000005374617274696E672050756C73652034
:0A0730007E29004D6574657200001B
:00000001FF
