:100000000C942A000C9447000C9447000C94470071
:100010000C9447000C9447000C9447000C94470044
:100020000C9447000C9447000C9447000C94470034
:100030000C9447000C9447000C9447000C94470024
:100040000C9447000C9447000C9447000C94470014
:100050000C94470011241FBECFE5D8E0DEBFCDBF12
:1000600010E0A0E6B0E0E2E6F0E102C005900D92FB
:10007000A03DB107D9F720E0A0EDB0E001C01D928E
:10008000A83DB207E1F70E9430040C942F080C94AD
:100090000000672B09F09FC0009711F4D8980895CD
:1000A0008130910511F4D99808958230910511F4A9
:1000B000DA9808958330910511F4DB98089584301F
:1000C000910511F4DC9808958530910511F4DD98BF
:1000D00008958630910511F4DE98089587309105D2
:1000E00011F4DF9808958A30910511F4C0980895AD
:1000F0008B30910511F4C19808958C30910511F45D
:10010000C29808958D30910511F4C39808958E30EA
:10011000910511F4C49808958F30910511F4C59894
:1001200008958031910511F4C698089581319105A3
:1001300011F4C79808958431910511F4A898089591
:100140008531910511F4A99808958631910511F42E
:10015000AA9808958731910511F4AB9808958831D4
:10016000910511F4AC9808958931910511F4AD9879
:1001700008958A31910511F4AE9808958B31910557
:1001800011F4AF9808958E31910511F49098089567
:100190008F31910511F4919808958032910511F4F1
:1001A000929808958132910511F4939808958232BE
:1001B000910511F4949808958332910511F495985E
:1001C00008958432910511F496980895859709F061
:1001D0009FC097980895009711F4D89A0895813098
:1001E000910511F4D99A08958230910511F4DA9AA3
:1001F00008958330910511F4DB9A089584309105B8
:1002000011F4DC9A08958530910511F4DD9A089572
:100210008630910511F4DE9A08958730910511F426
:10022000DF9A08958A30910511F4C09A08958B30B1
:10023000910511F4C19A08958C30910511F4C29A78
:1002400008958D30910511F4C39A08958E3091056B
:1002500011F4C49A08958F30910511F4C59A089548
:100260008031910511F4C69A08958131910511F4F8
:10027000C79A08958431910511F4A89A089585319B
:10028000910511F4A99A08958631910511F4AA9A5D
:1002900008958731910511F4AB9A0895883191053D
:1002A00011F4AC9A08958931910511F4AD9A08952D
:1002B0008A31910511F4AE9A08958B31910511F4AC
:1002C000AF9A08958E31910511F4909A08958F3167
:1002D000910511F4919A08958032910511F4929A42
:1002E00008958132910511F4939A0895823291050F
:1002F00011F4949A08958332910511F4959A089512
:100300008432910511F4969A0895859709F4979A85
:100310000895CF93C82F80FF07C061E070E08EE1A1
:1003200090E00E94490006C060E070E08EE190E03D
:100330000E944900C1FF07C061E070E08FE190E0DA
:100340000E94490006C060E070E08FE190E00E94EA
:100350004900C2FF07C061E070E080E290E00E94C7
:10036000490006C060E070E080E290E00E94490031
:10037000C3FF07C061E070E081E290E00E944900A5
:1003800006C060E070E081E290E00E944900C4FF96
:1003900007C061E070E082E290E00E94490006C080
:1003A00060E070E082E290E00E944900C5FF07C073
:1003B00061E070E083E290E00E94490006C060E0E6
:1003C00070E083E290E00E944900C6FF07C061E050
:1003D00070E084E290E00E94490006C060E070E0B6
:1003E00084E290E00E944900CC233CF461E070E09C
:1003F00085E290E00E94490006C060E070E085E27E
:1004000090E00E944900CF910895CF93C82F60E0FB
:1004100070E08AE190E00E9449008C2F0E948901DF
:1004200061E070E08BE190E00E9449008FE99FE07D
:100430000197F1F700C0000060E070E08BE190E010
:100440000E9449008FE99FE00197F1F700C000008A
:10045000CF91089581E00E9405020895813029F42A
:1004600080E8860F0E9405020895823021F480EC16
:10047000860F0E940502089560E070E08AE190E036
:100480000E94490060E070E08BE190E00E9449002A
:100490002FEF89EF90E0215080409040E1F700C0BD
:1004A000000080E30E9405028FE19EE40197F1F7CE
:1004B00000C0000080E30E9405028FE99FE00197E1
:1004C000F1F700C0000080E30E9405028FE39CE981
:1004D0000197F1F700C0000088E30E9405028CE05C
:1004E0000E94050281E00E94050286E00E9405024A
:1004F0000895CF93C82F61E070E08AE190E00E94F8
:1005000049008C2F0E94890161E070E08BE190E04E
:100510000E9449008FE99FE00197F1F700C00000B9
:1005200060E070E08BE190E00E9449008FE99FE07D
:100530000197F1F700C00000CF910895CF93DF93AA
:10054000EC018881882331F021960E9479028991FB
:100550008111FBCFDF91CF9108950F931F93CF931C
:10056000DF93EC01162F042F2E56304011F40E9419
:100570002A02602F812F0E942E02CE010E949E022D
:10058000DF91CF911F910F9108951ABA87E886B92C
:1005900080E487B9089597B18F70982B97B9369AF0
:1005A000349BFECF85E38A95F1F7000024B185B135
:1005B00090E0982F8827820F911D08958F929F9227
:1005C000AF92BF92EF92FF920F931F93CF93DF935F
:1005D0001616170604F57B018C010E5F1F4FC1E054
:1005E000D0E0812C912C5401F801619171918F011F
:1005F000072E000C880B990B0E94D9069B01AC01B9
:10060000C501B4010E94C3054B015C012196EC16A3
:10061000FD0654F703C0812C912C5401C501B4018F
:10062000DF91CF911F910F91FF90EF90BF90AF900E
:100630009F908F9008958F929F92AF92BF92EF926A
:10064000FF920F931F93CF93DF93161617063CF577
:100650007B018C010E5F1F4FC1E0D0E0812C912CFB
:100660005401F801819191918F018C9FB0018D9F70
:10067000700D9C9F700D1124072E000C880B990B98
:100680000E94D9069B01AC01C501B4010E94C305BB
:100690004B015C012196EC16FD061CF703C0812C72
:1006A000912C5401C501B401DF91CF911F910F919D
:1006B000FF90EF90BF90AF909F908F9008954F92D2
:1006C0005F926F927F928F929F92AF92BF92CF92E2
:1006D000DF92EF92FF92CF93DF93CDB7DEB76097B3
:1006E0000FB6F894DEBF0FBECDBF3C016A017B019F
:1006F00020E030E040E85FE3C701B6010E94C30597
:100700006D837E838F83988720E030E040E05FE355
:100710000E94650769837A838B839C83C701B60136
:100720000E94A1064B015C01C3010E94DE02A701E9
:1007300096010E942F0669877A878B879C87B40170
:10074000C3010E941B034B015C0129813A814B814B
:100750005C81C701B6010E9465072B013C019B012A
:10076000AC0169857A858B859C850E9465079B0114
:10077000AC01C501B4010E94C2054B015C01A70197
:100780009601C701B6010E94C30520E030E040E8B1
:100790005FE30E94C3056D877E878F87988B2D81CD
:1007A0003E814F815885C701B6010E9465079B01B4
:1007B000AC016D857E858F8598890E94650720E054
:1007C00030E040EC50E40E942F066B017C01A30155
:1007D000920169817A818B819C810E9465079B01CE
:1007E000AC01C701B6010E94C2059B01AC01C50165
:1007F000B4010E942F069B01AC016093D40070935A
:10080000D5008093D6009093D70069817A818B813F
:100810009C810E9465079B01AC0169857A858B8567
:100820009C850E94C2056093D0007093D100809394
:10083000D2009093D30060960FB6F894DEBF0FBE3F
:10084000CDBFDF91CF91FF90EF90DF90CF90BF9021
:10085000AF909F908F907F906F905F904F90089592
:100860004F925F926F927F928F929F92AF92BF92C0
:10087000CF92DF92EF92FF920F931F93CF93DF936C
:10088000CDB7DEB7C658D1090FB6F894DEBF0FBE9C
:10089000CDBF8FEF81BB84BB1ABA0E94C5020E94F4
:1008A0003C0225E830E040E050E061E070E084E7A1
:1008B00090E00E94AD0225E830E040E050E062E0C8
:1008C00070E086E890E00E94AD022FEF83ED90E3A8
:1008D000215080409040E1F700C000002EE630E05B
:1008E00040E050E061E070E081E990E00E94AD02FC
:1008F00025E830E040E050E062E070E080EB90E01E
:100900000E94AD02EFEFF7EA21E6E150F04020400F
:10091000E1F700C000002EE630E040E050E061E08A
:1009200070E08CE990E00E94AD0225E830E040E004
:1009300050E062E070E08BEA90E00E94AD028FEF41
:100940009BE7E2E981509040E040E1F700C0000001
:100950001A8A198A6E01F3E1CF0ED11C8601E12CAF
:10096000F12C0F2EF7E76F2E77247394F02D0F2EB6
:10097000FEE04F2EF02D0F2EF7E78F2E912CF02D4D
:100980008C0E9D1E22E0820E911C0F2EFEE75F2E24
:10099000F02D8FEFE81AF80A80E00E94CB02580190
:1009A000F801819391938F014AE0BE016F5F7F4F01
:1009B0000E94FA072EE630E040E050E061E070E08F
:1009C0008AEB90E00E94AD02F50180819181885C04
:1009D000910982959295907F9827807F9827B301FF
:1009E0000E94D207CB01E9961FAE1EAEE997F40133
:1009F000242D11922A95E9F71816190654F4FE01D0
:100A0000E958FF4F9F01260F371F5192E217F30756
:100A1000E1F74AE0BE016F5F7F4F0E94FA0725E8C9
:100A200030E040E050E062E070E0CE0189589F4F36
:100A30000E94AD028FEF91EEE4E081509040E040E3
:100A4000E1F700C00000F2E3EF16F10409F0A1CFD6
:100A500040E050E068E472E4CE0141960E945F03FA
:100A60004090D4005090D5006090D6007090D70090
:100A70008090D0009090D100A090D200B090D30090
:100A8000E12CF12C00E010E0B8016E5F7F4F072EE3
:100A9000000C880B990B0E94D906A30192010E94B9
:100AA0006507A50194010E94C3050E94A1060F5F7E
:100AB0001F4FF601419151916F01641775077CF446
:100AC000349720813181241735074CF4F6012081B9
:100AD0003181241735071CF4FFEFEF1AFF0A0233A8
:100AE000110591F68AE0E0E6F0E0DE01179601904C
:100AF0000D928A95E1F72EE630E040E050E061E0AB
:100B000070E0CE0107960E94AD02C701880F991FC1
:100B10008E0D9F1D4AE08E010F5F1F4FB801880F99
:100B2000991F0E94FA07D8010D900020E9F711974C
:100B300085E0EAECF0E001900D928A95E1F725E876
:100B400030E044E050E062E070E0C8010E94AD0295
:100B500080E090E0CA57DF4F0FB6F894DEBF0FBEBB
:100B6000CDBFDF91CF911F910F91FF90EF90DF905C
:100B7000CF90BF90AF909F908F907F906F905F903D
:100B80004F9008955058BB27AA270E94DA050C946D
:100B90002B070E941D0738F00E94240720F039F42B
:100BA0009F3F19F426F40C941A070EF4E095E7FB26
:100BB0000C941407E92F0E943C0758F3BA176207F8
:100BC00073078407950720F079F4A6F50C945E0767
:100BD0000EF4E0950B2EBA2FA02D0B01B901900158
:100BE0000C01CA01A0011124FF27591B99F0593F9C
:100BF00050F4503E68F11A16F040A22F232F342FE4
:100C00004427585FF3CF469537952795A795F04031
:100C10005395C9F77EF41F16BA0B620B730B840B46
:100C2000BAF09150A1F0FF0FBB1F661F771F881FFE
:100C3000C2F70EC0BA0F621F731F841F48F4879556
:100C400077956795B795F7959E3F08F0B0CF939548
:100C5000880F08F09927EE0F9795879508950E94C1
:100C600043060C942B070E94240758F00E941D078E
:100C700040F029F45F3F29F00C94140751110C94B3
:100C80005F070C941A070E943C0768F39923B1F39D
:100C9000552391F3951B550BBB27AA2762177307A2
:100CA000840738F09F5F5F4F220F331F441FAA1F36
:100CB000A9F335D00E2E3AF0E0E832D091505040F2
:100CC000E695001CCAF72BD0FE2F29D0660F771FA0
:100CD000881FBB1F261737074807AB07B0E809F086
:100CE000BB0B802DBF01FF2793585F4F3AF09E3F0B
:100CF000510578F00C9414070C945F075F3FE4F300
:100D0000983ED4F3869577956795B795F7959F5F4D
:100D1000C9F7880F911D9695879597F90895E1E099
:100D2000660F771F881FBB1F621773078407BA07F8
:100D300020F0621B730B840BBA0BEE1F88F7E09553
:100D400008950E94A8066894B1110C945F07089555
:100D50000E94440788F09F5798F0B92F9927B75100
:100D6000B0F0E1F0660F771F881F991F1AF0BA954F
:100D7000C9F714C0B13091F00E945E07B1E0089548
:100D80000C945E07672F782F8827B85F39F0B93F3A
:100D9000CCF3869577956795B395D9F73EF4909502
:100DA0008095709561957F4F8F4F9F4F0895E89480
:100DB00009C097FB3EF490958095709561957F4FA3
:100DC0008F4F9F4F9923A9F0F92F96E9BB27939551
:100DD000F695879577956795B795F111F8CFFAF461
:100DE000BB0F11F460FF1BC06F5F7F4F8F4F9F4F92
:100DF00016C0882311F096E911C0772321F09EE8F0
:100E0000872F762F05C0662371F096E8862F70E055
:100E100060E02AF09A95660F771F881FDAF7880F2F
:100E20009695879597F9089597F99F6780E870E000
:100E300060E008959FEF80EC089500240A94161650
:100E4000170618060906089500240A9412161306B8
:100E5000140605060895092E0394000C11F4882346
:100E600052F0BB0F40F4BF2B11F460FF04C06F5F62
:100E70007F4F8F4F9F4F089557FD9058440F551F38
:100E800059F05F3F71F04795880F97FB991F61F00C
:100E90009F3F79F087950895121613061406551F83
:100EA000F2CF4695F1DF08C0161617061806991FEF
:100EB000F1CF86957105610508940895E894BB27E4
:100EC00066277727CB0197F908950E9478070C943D
:100ED0002B070E941D0738F00E94240720F095235D
:100EE00011F00C9414070C941A0711240C945F074A
:100EF0000E943C0770F3959FC1F3950F50E0551F7A
:100F0000629FF001729FBB27F00DB11D639FAA275E
:100F1000F00DB11DAA1F649F6627B00DA11D661FAD
:100F2000829F2227B00DA11D621F739FB00DA11DCE
:100F3000621F839FA00D611D221F749F3327A00D88
:100F4000611D231F849F600D211D822F762F6A2F24
:100F500011249F5750409AF0F1F088234AF0EE0F89
:100F6000FF1FBB1F661F771F881F91505040A9F7B6
:100F70009E3F510580F00C9414070C945F075F3F6F
:100F8000E4F3983ED4F3869577956795B795F795F2
:100F9000E7959F5FC1F7FE2B880F911D969587956A
:100FA00097F9089597FB072E16F4009407D077FD64
:100FB00009D00E94E60707FC05D03EF49095819584
:100FC0009F4F0895709561957F4F0895AA1BBB1B95
:100FD00051E107C0AA1FBB1FA617B70710F0A61B39
:100FE000B70B881F991F5A95A9F780959095BC015A
:100FF000CD010895BB274A3031F4992322F4BDE294
:10100000909581959F4F0C940608BB27FB015527AF
:10101000AA27880F991FAA1FA41710F0A41B839555
:101020005051B9F7A05DAA3308F0A95DA1930097CC
:1010300079F7B111B1931192CB010C941F08DC0127
:10104000FC01672F71917723E1F7329704C07C91FF
:101050006D9370836291AE17BF07C8F30895F8943B
:02106000FFCFC0
:1010620048656172742052617465203A2000636C95
:10107200656172005374617274696E672050756C99
:101082007365207E290053656E736F72202A5F2A72
:1010920000506C61636520796F7572004B656570F5
:1010A20020706C6163696E67207E00796F757220B3
:1010B20066696E676572746970004D6561737572F9
:1010C200696E672E2E202A5F2A002062706D000052
:00000001FF
